:020000040800F2
:10000000C8E90020B90200089F5A0008FD21000835
:100010009D5A00082B1D00082981000800000000DF
:10002000000000000000000000000000CB020008FB
:100030002D1D000800000000470300080576000899
:10004000D3020008D3020008D3020008D30200083C
:10005000D3020008D3020008D3020008D30200082C
:10006000D3020008D3020008D3020008D30200081C
:10007000D3020008D3020008D3020008D30200080C
:10008000D3020008D3020008D3020008D3020008FC
:10009000D3020008D3020008D3020008D3020008EC
:1000A000D3020008D3020008D3020008D3020008DC
:1000B000D3020008D3020008D3020008D3020008CC
:1000C000D3020008D3020008D3020008D3020008BC
:1000D000D3020008B57D0008D3020008317E000875
:1000E000D3020008D3020008D3020008D30200089C
:1000F000D3020008D3020008D3020008D30200088C
:10010000D3020008D302000809780008D3020008CF
:10011000D3020008D302000891780008757900081E
:10012000D3020008D3020008D3020008D30200085B
:1001300000F002F800F0B0F80AA090E8000C824449
:100140008344AAF10107DA4501D100F0A5F8AFF226
:10015000090EBAE80F0013F0010F18BFFB1A43F0A5
:10016000010318471CD100003CD100000A444FF0A5
:10017000000C10F8013B13F0070408BF10F8014B06
:100180001D1108BF10F8015B641E05D010F8016B4B
:10019000641E01F8016BF9D113F0080F1EBF10F8AF
:1001A000014BAD1C0C1B09D16D1E58BF01F801CBD2
:1001B000FAD505E014F8016B01F8016B6D1EF9D555
:1001C0009142D6D37047000000230024002500266A
:1001D000103A28BF78C1FBD8520728BF30C148BFAA
:1001E0000B6070476E2900F05884702900F08782F8
:1001F00066290BF0DB8265290BF0D88267290BF0AA
:10020000D58261290BF0D48203681B0A28BF41F014
:100210008001692900F06281642900F05F817529FD
:1002200000F05C816F2900F01582782900F053827C
:10023000E92900F0A384E42900F0A084F52900F066
:100240009D84EF2900F01282F82900F052820368A1
:10025000DB0928BF41F08001632900F05A8473292B
:1002600000F05F84E32900F07D84F32900F08284AC
:10027000002070471FB501F0E1F8040000200021C4
:100280000BF02AF9401C6060002000210BF03AF9C5
:10029000E0601FBD10B510BD01F0AAF81146FFF7D0
:1002A000E9FF09F04DFE01F07BF903B4FFF7F2FF1F
:1002B00003BC08F0A3F9000009488047094800473B
:1002C000FEE7FEE7FEE7FEE7FEE7FEE7FEE7FEE706
:1002D000FEE7FEE704480549054A064B7047000063
:1002E0002576000831010008C8E30020C8E9002095
:1002F000C8E50020C8E50020EFF3108072B6704713
:1003000080F310887047204C204D25604FF000048A
:1003100084F309881E4C4FF0010525701D4C4FF0E9
:100320008055256062B6FEE730B41A4C4FF0805518
:10033000256030BC704730B4164C4FF080552560B6
:1003400030BC704700BF72B6EFF3098028B1203887
:1003500080E8F00F10490968086000B50F48804731
:100360005DF804EB0E480F490A7802700A480E49FE
:100370000A680260106890E8F00F203080F3098866
:100380004EF0040E62B6704720ED00E00000FFFF63
:100390002F01002004ED00E048010020E164000886
:1003A0002C0100202D01002050010020704700008A
:1003B0001CB50C46064B7B4469460090204600F075
:1003C00086FB04460020694600F094FB20461CBDD5
:1003D0003B0700000FB4044910B503AA029800F0CF
:1003E000A5FB10BC5DF814FB440000200FB41CB545
:1003F000084B06AA7B4469460090059800F067FB0D
:1004000004460020694600F075FB20461CBC5DF8E0
:1004100014FB0000FD06000070B504468569006805
:10042000C10601D5302600E02026C00707D070BDE8
:10043000D4E9012130469047206A401C20626D1E9D
:10044000F6D570BD70B5044685690078C00707D140
:1004500070BDD4E9012120209047206A401C206211
:100460006D1EF6D570BD09684A0501D540B27047CA
:10047000C905FCD500B2704709684A0501D5C0B26C
:100480007047C905FCD580B2704770B50C4605466B
:10049000012A05D02878800600D5EA69002302E009
:1004A000012305E05B1C934202D2E05C0028F9D1F5
:1004B000A869E618C01AA861286A18442862284664
:1004C000FFF7AAFF04E0D5E9012114F8010B9047DA
:1004D000B442F8D32846FFF7B5FF70BD2DE9F041CF
:1004E0000646002410687529314616A510D0FFF77E
:1004F000BAFF002802DA404213A507E031688A07F4
:1005000001D512A502E0490704D511A5012401E097
:10051000FFF7B2FF00210A2206F1240709E0B0FB31
:10052000F2FCB0FBF2F302FB1C00303078541846AA
:10053000491C0028F3D123462A463046BDE8F04145
:1005400000F052BA000000002D0000002B00000057
:10055000200000002DE9FF5F15468A460446DFF8BB
:10056000AC80F8440027D8E900103E46CDE90010E1
:1005700010E03AF816106A4602A800F03DFB411C54
:1005800007D02178890603D5E269391891420DD840
:100590000744761C2078800602D5E069B84205DD64
:1005A000AE42E6DB3AF816000028E2D1A069C01B93
:1005B000A0612046FFF730FFD8E90010CDE9001018
:1005C000002017E03AF818106A4602A800F014FB61
:1005D000B0F1FF3F81460BD000250DF1080B05E07F
:1005E000D4E901211BF8050090476D1C4D45F7D358
:1005F00008F10100B0428046E4DB206A3844206202
:100600002046FFF71FFFBDE8FF9F000052CB000010
:1006100030B4002100F1240408E002F00705D208FC
:10062000303542EA4372DB086554491C52EA03053F
:10063000F3D10468002310A2250708D504F0200494
:100640000C4304D0C46901230CA2641EC46130BCF5
:1006500000F0CAB910B5044621461068FFF70CFF38
:1006600002462046BDE810400023D1E7D21D22F00B
:100670000701D1E90023CBE70000000030000000B3
:10068000F0B40D460188090502D5214C7C4402E0F6
:100690001F4C7C440E34002100F1240608E002F0D7
:1006A0000F071209E75D42EA03721B097754491CE0
:1006B00052EA0307F3D102780023120704D5702D04
:1006C00006D009B1022311342246F0BC00F08CB9E7
:1006D00001231034F8E770B504460D462146106832
:1006E000FFF7CAFE024629462046BDE870400023B7
:1006F000C6E7D21D22F00703D3E90023C0E7036851
:10070000126843F0200303600823C3610023B7E7A6
:1007100030CA00002DE9F05F894604464FF0000A18
:10072000DFF874B1FB44C0F820A02046E168884798
:10073000002874D0252806D0D4E901219047206AEA
:10074000401C2062F1E700265F462046E1688847AA
:100750002028054607DB312D05D2781910F8200C2A
:1007600008B10643F1E7B00701D526F00406C4F846
:100770001CA00027C4F818A02A2D09D0284607F08D
:1007800036FF38B304EB8708303DC8F8185019E03D
:1007900059F8041B204604EB87029161E168884701
:1007A000012F054618D1E069002820DA26F020063E
:1007B0001DE0D8F8180000EB800005EB4000303851
:1007C000C8F818002046E1688847054607F00FFF83
:1007D0000028EED1012F0AD02E2D08D12046E16845
:1007E00088477F1C0546022F46F02006C4DBA0691F
:1007F000002803DA404246F00106A061F00701D06C
:1008000026F010066C2D0BD0682D09D04C2D39D058
:100810006A2D35D0742D35D07A2D33D016E038E0DE
:10082000E1682F4620468847B842054609D16C2F1B
:1008300026D04FF48060E16806432046884705468D
:1008400004E06C2F1AD04FF4807006430DB3A5F16D
:100850004100192802D8203546F400664A46294648
:10086000204626604E46FFF7BDFC80B101280BD024
:10087000F61D26F0070000F1080956E74020E4E7DE
:100880008020D8E70020D6E706F104094DE7284686
:1008900052E7206ABDE8F09FC0C9000030B50546A8
:1008A0000B462A4613F8014B12F8010B08B1A0427F
:1008B000F8D01CB1002802D06D1CF1E7284630BDED
:1008C00040EA0103024630B59B0710D14FF00134D6
:1008D00000E008C208C91D1B9D4315EAC41FF8D0DB
:1008E00013F0FF0102F8011B0DD01B0AF8E711F805
:1008F000013B002B02F8013B05D011F8013B002B16
:1009000002F8013BF3D130BD10B5431C02E010F8F2
:10091000011B71B18107FAD14FF0013202C88C1A64
:100920008C4314EAC211F9D0C01A0A0603D0C01EC3
:1009300010BDC01A10BD0A0401D0801E10BD0902EE
:10094000FCD0401E10BD421E12F8013F002BFBD10F
:1009500011F8013B002B02F8013BF9D17047000070
:100960004FF0013C50F8042B51F8043B9A4221D13E
:10097000A2EB0C03934313EACC1317D150F8042BCA
:1009800051F8043B9A4215D1A2EB0C03934313EAAE
:10099000CC130BD150F8042B51F8043B9A4209D1E7
:1009A000A2EB0C03934313EACC13DBD04FF000000F
:1009B000704700BFD01A01BAB1FA81F101F01801F5
:1009C00022FA01F0CB40C1F12001DBB2C0B2C01A63
:1009D0002CFA01F3D11A914311EAC311E6D1704701
:1009E00070477047704770472DE9F0470D469946AC
:1009F0009246044600F124080168880604D5E0699F
:100A000021F01001216000E00120A84201DD471B18
:100A100000E00027A1697A1902EB0900081AA06119
:100A20002078C00602D42046FFF7F6FC002608E036
:100A3000D4E901211AF806009047206A401C761C70
:100A400020624E45F4DB2078C0060AD52046FFF729
:100A5000E3FC06E0D4E9012130209047206A401CE5
:100A60002062381EA7F10107F4DC07E0D4E9012178
:100A700018F805009047206A401C2062281EA5F146
:100A80000105F3DC2046FFF7DDFC2078000602D5E7
:100A90000220BDE8F0870120FBE711680268006AC8
:100AA000530501D508700AE0D30501D5088006E09A
:100AB000130603D5C217C1E9000200E00860012057
:100AC0007047000001694A1C02610878704700B550
:100AD0008FB0CDE901310021059105497944CDE977
:100AE000031011466846FFF715FE0FB000BD000069
:100AF000E5FFFFFF0A6802F8010B0A60704710B5B6
:100B0000436913B1AFF3008001E0FFF7BEFC0120A1
:100B100010BD127800F124010A7000224A700122EF
:100B2000EDE711684FF0FF32E9E70000074B70B5C1
:100B30000D467B44FFF7CBFF0446284600F054FCEB
:100B400010B14FF0FF3070BD204670BDBB8F00006C
:100B500010B5436913B1AFF3008001E0FFF7FAFC71
:100B6000012010BD128800F1240182840022C28479
:100B70000122EDE711684FF0FF32E9E72DE9F0417E
:100B80008046D21D22F007020025D2E90002F52995
:100B900015A614D0011E72F1000106DA0023D0EB75
:100BA000030063EB020211A608E0D8F800108B07DF
:100BB00001D50FA602E0490701D50EA60125114671
:100BC000002408F1240704E000F03EF830323A55E2
:100BD000641C50EA0102F7D12B46324621464046BA
:100BE000BDE8F041FFF700BF000000002D0000004D
:100BF0002B0000002000000070B516460C4605468C
:100C000000F01AF8036893F80101012806D0FF2CC0
:100C10000FD8185D68B101202C7070BDD3F80701A2
:100C20003246214603F2071303442846BDE87040CC
:100C300018474FF0FF3070BD10B500F0FFFB001DEE
:100C400010BD00BF95A8000030B5B0F10A024FEA10
:100C5000900E71F100034EEA817EB0EB0E0061EB65
:100C600091014FEA101E4EEA017E10EB0E0041EB9F
:100C700011114FEA102E4EEA016E10EB0E0041EBFF
:100C800011214FEA104E4EEA014E10EB0E0041EBDF
:100C90001141401841F100014FEAD00040EA417093
:100CA0004FEAD10110EB80054FEA810444EA9074C9
:100CB00044EB01046D1944EB0404521BA3414FF0B3
:100CC000000348BF0A3200D530BD401C41F100018D
:100CD00030BD70472DE9FF4F0C461E464FF0FF37E1
:100CE0008BB0D2E90001DDF860800A908A46C1F33A
:100CF0000A5505B93D46002108464FF00000BAF1FB
:100D0000000F00F4400005DA00EB80004FF44001D2
:100D100001EA50004FEA9059B9F1010F00DDB946E0
:100D20000A9850EA4A000ED044F61050A5F2FF355A
:100D300045432F14B8F1000F1ED07542291E1EDD49
:100D4000C9F100021CE0B8F1010F4FF0000001D022
:100D5000302103E0F24305E02154401CB042FBDBAC
:100D600030460022002121540B99C1F80880C1E9C6
:100D700000200FB0BDE8F08FBD1B6D1CDEE74A46BA
:100D800000DA694206A800F09DFB06AB93E8070075
:100D900003AB83E8070050460A9900F00BFC8DE88E
:100DA0000700A0F500501F3800900398002D09DDC2
:100DB00042F21F014A46084403A90390684600F026
:100DC0006AFE08E0A0F500504A461F3803A90390C8
:100DD000684600F074FE8DE807000004000C03D0A4
:100DE0004FF0FF30410800E01046B8F1000F03D08B
:100DF0000022009215461EE0751E05D4FFF724FF61
:100E0000303262556D1EF9D5B3460122084302D037
:100E100000227F1C04E02078302801D100227F1EB0
:100E2000002A099786D01DE0112D07DAFFF70CFF85
:100E3000303262556D1C50EA0102F5D1084302D0F0
:100E40000098C8B10EE00021681E05E0235C625CDA
:100E500063542254401E491C8142F7DBAB46A81B59
:100E6000401E0990002004F80B000B98099AC0F866
:100E70000880C0E9002B7CE711264FF0000859E7F5
:100E80002DE9F04F88460446D21D22F0070191B0AB
:100E9000D1E90001CDE90A0107F095FB02460B9864
:100EA000C00F01D02D2007E02068810701D52B203D
:100EB00002E0202101EAC000032A099001D0072A9C
:100EC00005DB03464146204600F0BCFA0BE12078E2
:100ED000800601D5E06900E00620B8F1650F814683
:100EE00006D0B8F1660F18D0B8F1670F70D131E0B5
:100EF0000020B9F1110F009001DB112301E009F18D
:100F000001030AAA01A90CA8FFF7E4FEDDE90C70B1
:100F1000002609F10105834647E001204B46009079
:100F20004FF000470AAA01A90CA8FFF7D3FEDDE99C
:100F30000DB00C995D46002610B909F101000D189D
:100F4000B9EB050003D4C0F1FF3609F10105A5EBAB
:100F500009002BE0B9F1010F01DA4FF0010900207F
:100F6000B9F1110F0090484601DD112300E003465E
:100F70000AAA01A90CA8FFF7ADFEDDE90C704D46E9
:100F800000268346207800070AD4AB4500DA5D4688
:100F900001A8012D04DD411911F8011C302907D0E9
:100FA0004F4502DA17F1040F04DA012082460FE000
:100FB0006D1EEEE7002F02DCED1B3E4403E0781CC3
:100FC000A84200DD7D1CB81B00F1010A4FF000476C
:100FD0002078000703D4AA4501DB4FF0FF3A002137
:100FE000B7F1004F0DF143088DF8431024D00220D3
:100FF0002B23002F01DA7F422D230A21021EA0F1AC
:10100000010000DC5FB197FBF1FC97FBF1F201FB03
:101010001C7C17460CF1300C08F801CDEEE7A8F166
:10102000010003702188090501D5452100E06521F3
:10103000A0F1010800F8011C09980FA9A1EB08070D
:10104000FF1D00B10120411901EBEA70A16938448C
:10105000081A401EA0612078C00602D42046FFF77F
:10106000DBF9099828B1D4E901219047206A401C96
:1010700020622078C00622D52046FFF7CDF91EE079
:10108000002E04DBB34502DD01A8805D00E03020C6
:10109000D4E901219047206A401C2062761CAAF105
:1010A00001005FEA000A0AD100F0C8F9C0680168CF
:1010B000405CD4E901219047206A401C2062281E30
:1010C000A5F10105DCDC07E0D4E9012118F8010BEA
:1010D0009047206A401C2062381EA7F10107F3DC0C
:1010E0002046FFF7AFF9032011B043E62DE9F04F9A
:1010F00004460D46D21D22F0070089B0D0E90092C7
:1011000048461746394607F05EFA0246F80F01D006
:101110002D2307E02068810701D52B2302E0202141
:1011200001EAC0038DF820300BB1012000E000205F
:10113000032A824601D0072A04DB2946204600F014
:1011400081F93DE12078800601D40D2500E0E569B4
:10115000C7F30A560D2D49DA00214FEA175B0846FE
:101160004FF00000002F00F4400007DA00EB800091
:101170004FF4400100EBD07001EA600081150129B5
:1011800001DD4FF0FF3100224FEA850CBCF1180F52
:1011900006D31346ACF118004FF08052C24003E072
:1011A0004FF4801323FA0CF30CF10C0CBCF1200F5C
:1011B00004D3ACF1200C09FA0CF001E007FA0CF0B2
:1011C00000294FF0004801DD18B90FE00ED140456D
:1011D0000CD319EB02095F4121B9404502D19F436D
:1011E00029EA0209BBEB175F00D0761C20880005B6
:1011F00002D57B48784402E079487844193808AA37
:10120000302302F80A30037C0AF10101002E0AF1B2
:10121000020A53546A4602DC4FF0300101E04FF0FD
:1012200031014FF001088DF8001002D0A6F2FF3610
:1012300003E059EA470100D06A4E002D02DC217814
:10124000090704D54FF002082E218DF80110C4467D
:1012500000210BE0C7F303433F01C35C491C6D1E33
:1012600002F80830052908F1010801DA002DF1DC47
:1012700000210CE000EB1973491C1B786D1E082936
:1012800002F808304FEA091908F1010801DA002DC7
:10129000F0DC2178890602D514E0A8F10108E045C8
:1012A00005DD02EB080111F8011C3029F5D0B8F179
:1012B000000F07DD02EB080111F8011C2E2901D1F6
:1012C000A8F10108002D05DD3E2102F808106D1E71
:1012D00008F10108407C002E02F8080008F101081E
:1012E00004DA2D20764202F8080002E02B2002F8F2
:1012F00008000A214FF47A70864208F101080BDBDE
:1013000096FBF0F3303302F8083096FBF0F308F167
:10131000010800FB136601E0642E0CDB642096FBE1
:10132000F0F3303302F8083096FBF0F308F10108CF
:1013300000FB136601E00A2E06DB96FBF1F030306D
:1013400002F8080008F1010896FBF1F001FB1060BB
:10135000303002F80800A16908F1010808EB050225
:1013600002EB0A00081AA0612078C00602D42046C9
:10137000FFF752F8216A08AE01EB0A00206204E090
:10138000D4E9012116F8010B9047BAF1010AF7D20E
:101390002078C00602D52046FFF73EF86E4609E0E9
:1013A00016F8010B3E280FD0D4E901219047206A9E
:1013B000401C2062B8F10108F2D22046FFF742F843
:1013C00009B00320BDE8F08F206A2844206203E0C2
:1013D000D4E90121302090476D1EEBD3F8E70000DF
:1013E00014BF000002FCFFFF007B00F0800070478C
:1013F000754600F0DBF8AE4605006946534620F01E
:101400000700854618B020B5FEF764FFBDE8204010
:101410004FF000064FF000074FF000084FF0000BB0
:1014200021F00701AC46ACE8C009ACE8C009ACE863
:10143000C009ACE8C0098D467047000000487047FD
:1014400088E300202DE9F0411F4604460326016889
:10145000072A01F4006004DB08B116A505E016A513
:1014600003E008B115A500E015A521F010002060EB
:10147000A069C01EA0610FB1401EA0612046FEF70A
:10148000CBFF4FB1D4E9012138469047206A401C78
:101490002062C01C206206E0206AFAE7D4E901213C
:1014A00015F8010B9047761EF8D22046FEF7CAFFCA
:1014B000BDE8F0814E414E006E616E00494E46001F
:1014C000696E66002DE9F047814616468AB03348BA
:1014D00078440DC88DE80D0030487844801C03AC7A
:1014E0000DC884E80D0041F69B300844372190FB7D
:1014F000F1F290FBF1F5A5F1800501FB12041B3C14
:1015000002D56442012000E00020DFF890A0804670
:101510000027FA44AAF1BE0A0DE0E00709D03246DE
:10152000684607EB47010AEB810100F0C8FA8DE835
:10153000070064107F1C002CEFD1184F7F44AC3F94
:1015400018E0E80714D007EB04100DF1180A90E832
:101550000E008AE80E00C068F04201D19819089088
:10156000324606A903A800F0AAFA03AB83E80700F5
:101570006D10641C002DE4D132466946B8F1000FAD
:1015800003A802D000F087FA01E000F098FAC9E958
:101590000001C9F808200AB0BDE8F087C8BC000007
:1015A0000446AFF300802046FEF77FFE00487047F8
:1015B00068E300205FEA400C08BF91F0000F4FEA9B
:1015C0008C234FEAC12243EA51514FEA1C5018BF05
:1015D00000F5F0404FEA300018BF41F000415FEAEB
:1015E0006C5C00F02980BCF1FF3F08BF40F08040F8
:1015F0007047130C06BF12044FF0100C4FF0000C94
:10160000130E04BF12020CF1080C130F04BF1201D9
:101610000CF1040C930F04BF92000CF1020CD30FD9
:1016200004BF52000CF1010C11464FF00002A0F172
:101630001F00A0EB0C00704711F0004F08BF70476F
:1016400031F000413FF4D5AF0B0C06BF09044FF059
:10165000100C4FF0000C0B0E04BF09020CF1080C2B
:101660000B0F04BF09010CF1040C8B0F04BF8900A0
:101670000CF1020CCB0F04BF49000CF1010CCCF1B2
:101680002003A0EB0C0022FA03F302FA0CF241EA69
:10169000030100F10100704720F07F4C80EA030055
:1016A00023F07F47ACEB070303F57C5300F00040C9
:1016B00003F1FF032DE980494FEA154B09B44FEAC6
:1016C000144325EA0B4E24EA03480FF2042606EBE6
:1016D000132749083E785FEA320203FB0667C7F525
:1016E000000707FB06F64FEA54374FEAD64606F1E5
:1016F000020607FB066CCCF1005C4FEA1C472CEAA3
:10170000074C07FB06F40CFB06F504EB15464FEA05
:10171000961634BF00204FF000404FEAD13706FB49
:1017200007FC4FEA1C4C0CFB0BF7D21B03FB0CF71E
:1017300061EB07010CFB0EF7B0EB074072EB1742B1
:101740000CFB08F734BFA2EB0742B2EB074261EB98
:1017500017414FEA0C444FEA910706FB07FC4FEA9A
:101760001C4C0CFB0BF7B0EBC74072EB573203FB82
:101770000CF734BFA2EBC742B2EBC74261EB573163
:101780000CFB0EF7B0EBC70072EB57720CFB08F7BF
:1017900034BFA2EBC702B2EBC70261EB5771039FE4
:1017A0004FEA816141EA921104EBCC044FEAD13750
:1017B0004FEA826206FB07FC42EA90124FEA806021
:1017C0004FEA1C4C0CFB0BF7D21B03FB0CF761EB35
:1017D00007010CFB0EF7B0EB074072EB17420CFB56
:1017E00008F734BFA2EB0742B2EB074261EB1741A7
:1017F0004FEA8C554FEA910704EB9C2406FB07FC4B
:101800004FEA1C4C0CFB0BF7B0EBC74072EB5732A6
:1018100003FB0CF734BFA2EBC742B2EBC74261EB4C
:1018200057310CFB0EF7B0EBC70072EB57720CFB95
:1018300008F734BFA2EBC702B2EBC70261EB5771E6
:1018400015EB4C254FEA816141EA92114FEA826221
:101850004FEAD13742EA901206FB07FC44F100043C
:101860004FEA80604FEA1C4C0CFB0BF7D21B03FBCA
:101870000CF761EB07010CFB0EF7B0EB074072EBC6
:1018800017420CFB08F734BFA2EB0742B2EB07424A
:1018900061EB174115EB1C154FEA813141EA92418A
:1018A0004FEA823242EA90424FEA80304FEA0C76A9
:1018B00044F1000448EA03434EEA0B484FF0000E9F
:1018C000B2EB080C71EB030724BF624639464EEBBE
:1018D0000E0E4FF0000B0018524149414BEB0B0B21
:1018E000B2EB080C71EB03077BF1000B24BF6246DF
:1018F00039464EEB0E0E4FF0000B00185241494195
:101900004BEB0B0BB2EB080C71EB03077BF1000BFD
:1019100024BF624639464EEB0E0E51EA020718BF4D
:1019200046F0010616EB0E7655F1000254F1000167
:1019300003D5BDE88901BDE80088BDE88901BDE89F
:101940000048B619524141EB0101A3F10103704770
:1019500080807F7E7D7C7B7A7978777676757473EC
:10196000727171706F6E6E6D6C6C6B6A6A696868AB
:10197000676666656464636362616160605F5F5E41
:101980005E5D5D5C5C5B5B5A5A59595858575756B7
:10199000565555555454535352525251515050501C
:1019A0004F4F4F4E4E4D4D4D4C4C4C4B4B4B4A4A6E
:1019B0004A494949484848474747474646464545B2
:1019C00045444444444343434342424242414141EB
:1019D000002B26D4770021D01CB54FEA370703B47B
:1019E0004FF010004FF010014FF000000FBCBDE8A9
:1019F00010400BF1010BBBF1010F08BF5FEA1707A5
:101A000022BF12F1010211F101014FF0004143F137
:101A1000000300F0004043EA00007047F9D3570884
:101A2000DAE746EA064613F1400F4FEA16461FDD95
:101A300013F1200FDFBF16430A46002120335B421B
:101A4000C8D0C3F1200746EA064602FA07F74FEA74
:101A5000164646EA0706C3F1200722FA03F201FA06
:101A600007F721FA03F14FF0000342EA0702B1E75A
:101A700046EA020646EA06464FEA164646EA0106E6
:101A8000BCBF46EA0646360C4FF000034FF000029A
:101A90004FF000019EE72DE9C048934630B491E82D
:101AA000380007C831EA400C48BF34EA430C03D57C
:101AB000FFF7F2FDFFF78CFFF0BCBDE800882DE9D1
:101AC000C048934630B491E8380007C810F0804F02
:101AD00008BF13F0804F03D100F005F8FFF778FF3F
:101AE000F0BCBDE8008820F07F4780EA030023F0C7
:101AF0007F4C07EB0C03A3F57C5300F00040A3F1EF
:101B0000FE0392F0000F00F0B38095F0000F00F09C
:101B100077802DE901494FEA11404FEA144621EA46
:101B2000004800FB06FC24EA064708FB06F607FB14
:101B300008F800FB07F718EB06484CEB164C4FEA89
:101B4000124B18EB07484FEA15464CEB174022EAB8
:101B50000B4E0BFB06FC25EA06470EFB06F607FBC1
:101B60000EFE0BFB07F71EEB064E4CEB164C4FF030
:101B700000061EEB074E4CEB174B18EB0B0840F121
:101B8000000018EB0E0B58EB000840F100008F1A14
:101B90004FF000013CBFC943661B14BFB5EB040CFA
:101BA00000213CBFC943F61B4FEA17444EEA8E0E94
:101BB00027EA04454FEA1C4704FB07622CEA074C5E
:101BC00005FB07F70CFB05F604FB0CFC16EB0746C0
:101BD00042EB174216EB0C4642EB1C421BEB06068F
:101BE00058EB0202414146EA9E0601D5BDE8018953
:101BF000B619524141EB0101A3F10103BDE801898E
:101C00004FEA14454FEA114724EA054621EA074CFA
:101C100005FB07F406FB07F70CFB06F105FB0CFCC4
:101C200011EB074144EB17444FEA124711EB0C410B
:101C300044EB1C4422EA074C05FB07F206FB07F7BE
:101C40000CFB06F605FB0CFC16EB074642EB1742B5
:101C500016EB0C4642EB1C456A1854F1000148BFD4
:101C60007047B619524141EB0101A3F101037047DE
:101C700095F0000F37D04FEA11424FEA144721EA9E
:101C8000024624EA074C02FB07F106FB07F70CFBB0
:101C900006F402FB0CFC14EB074441EB17414FEA3E
:101CA000154714EB0C4441EB1C4125EA074C02FBA1
:101CB00007F506FB07F70CFB06F602FB0CFC16EB20
:101CC000074645EB174516EB0C4645EB1C4212192F
:101CD00051F1000148BF7047B619524141EB010173
:101CE000A3F1010370474FEA14454FEA114724EA74
:101CF000054621EA074C05FB07F106FB07F70CFB3D
:101D000006F24FF0000605FB0CFC12EB074241EB1C
:101D1000174112EB0C4251EB1C4148BF704792181F
:101D200041EB0101A3F101037047FEE7704700009A
:101D30008000A0F1C0400029016802D041F00101FB
:101D400001E0024A1140016070470000FEFF0F00F1
:101D500010B5D0E901121143D0E903231A4311430E
:101D60004269114382691143C2691143026A1143F6
:101D7000426A1143826A1143C26A1143026B1143E2
:101D800002689200A2F1C04211608168082907D15F
:101D900001688900A1F1C0410A6842F040020A606E
:101DA000416BD1E9002342EA03128B688C891B0244
:101DB00043EA04431A430B8A42EA03520B7D8969C2
:101DC00042EA03620A4301688900A1F1C0414A6006
:101DD000C16AB1F5804F08D000686FF07041800093
:101DE000A0F1C040C0F8041110BD816BD1E90023FF
:101DF00042EA03128B680C8A1B0243EA04531A431B
:101E00000B7D896942EA036200680A438000A0F101
:101E1000C040C0F8042110BD70B50446014611A0B1
:101E2000FEF7D8FA240300F0D5F800F07FF80F4D44
:101E30000020C5F8B001202005F5D87504F0DEFFBC
:101E4000C4F3074004F0DAFFC4F3072004F0D6FF20
:101E5000E0B204F0D3FF01202860BDE8704000F03C
:101E600065B8000066653A25780D0A0000802142B9
:101E70002DE9F041124F05004FF0000016460C46C8
:101E8000C7F8B00119D0032004F0B8FFC4F307402D
:101E900004F0B4FFC4F3072004F0B0FFE0B204F094
:101EA000ADFF002404E0FF2004F0A8FF2855641CC7
:101EB000B442F8D30120C7F8B001BDE8F0810000BA
:101EC0000080214270B50F4D0024C5F8B04190202C
:101ED00005F5D87504F092FF002004F08FFF002074
:101EE00004F08CFF002004F089FFFF2004F086FF3F
:101EF00044EA0024FF2004F081FF204301212960EF
:101F000070BD00000080214210B5074C0020C4F8CD
:101F1000B001052004F5D87404F070FFFF2004F030
:101F20006DFF0121216010BD0080214210B5FFF737
:101F3000EBFFC007FBD110BD2DE9F05FDFF89090FB
:101F400015468A46070041D0CAF30B06C6F58054F1
:101F50004FEA1A38A54200D8ACB24FEA08318B4696
:101F60004FF480524846FFF783FF002006E0321806
:101F700019F80210FF2903D1401C80B2A042F6D309
:101F8000A0421FD24046FFF747FF002005E03A5C21
:101F90008319401C09F8032080B2A042F7D35946A8
:101FA0004FF48052484600F025F8A5420ED0274451
:101FB000A2442D1B00264FF4805408F10108A542CD
:101FC000CBD8C9E7224651463846ECE7BDE8F09F3A
:101FD0006C12002010B5064C0020C4F8B001062099
:101FE00004F5D87404F00AFF0120206010BD000041
:101FF000008021422DE9F0410746C8B2C0F5807447
:102000000E461546A24200D814464FF48078224668
:102010003146384600F00EF8A54208D0281B274468
:10202000264485B24446A542F1D82C46EFE7BDE8E8
:10203000F08100002DE9F04115460C460646FFF7F9
:10204000C9FF114F0020C7F8B001022004F0D6FEEE
:10205000C4F3074004F0D2FEC4F3072004F0CEFE20
:10206000E0B204F0CBFE002404E0305D04F0C6FED4
:10207000641CA4B2AC42F8D30120C7F8B001BDE89B
:10208000F041FFF753BF00000080214210B5094C1A
:102090000020208004F0DEFE07490120C1F8B001D5
:1020A000FFF710FF20800146BDE8104003A0FEF7B7
:1020B00091B90000480000200080214246696E640A
:1020C00020466C6173682049632025640A00000083
:1020D000F0B5CC78002204F00F03E40601D58C782B
:1020E00023430C784FF00F0C14F0FF0F4FF0010E4C
:1020F0001BD005680E880EFA02F42640A64210D1C5
:1021000096000CFA06F725EA070703FA06F5CE78DB
:102110003D43282E02D0482E02D002E0446100E068
:102120000461521C082AE5D305600A88FF2A1CD9DD
:102130004468002202F108060EFA06F50E882E40C9
:10214000AE420ED196000CFA06F7BC4303FA06F72E
:10215000CE783C43282E00D14561CE78482E00D160
:102160000561521C082AE5D34460F0BD4161704707
:1021700030B40C4601461546500700D0012000EB54
:10218000D5006843C2B208784B78812809D3402B28
:1021900007D3FF2B05D0FF2803D07F2B0CD2403B69
:1021A0000BE00023184603E05B1C04F8010BDBB2D4
:1021B0009342F9D330BC7047413B8138D9B2C0B2A9
:1021C000C0EB401303EB801001EB400050430A4981
:1021D0000C2D0AD0102D0BD0182DEBD1D1F81910E1
:1021E0000144204630BCFFF743BED1F80910F7E7A1
:1021F000D1F81110F4E70000FC270020FEE70000F2
:102200002DE9F043174F0646002438887D88454362
:10221000B888A0F5D041043902D1B879012807D097
:102220000021084603F076FA03F026FC0E4815E07C
:102230000020B8714FF02A09A7F80A904FF02B0838
:10224000A7F80C80014603F065FA0120B871A7F8E1
:102250000A80A7F80C90E7E70680641CAC42FBD329
:10226000BDE8F0836C2200200008006C2DE9F04FDF
:102270004A492A232B24898845F2105A4FF4305BAF
:102280004FF4285E4FF448754FF0F00C49F2413995
:102290004FF4A07745F210364FF4F07280B13F480A
:1022A0004FF00108494580F806800780A0F802C079
:1022B00001D0B1423ED12C2505814381848157E074
:1022C00036484FF00008494580F80680A0F800C065
:1022D000478006D0A1F5D04CBCF1040C01D0B1422E
:1022E0000CD12C2505814381A1F5D0438481043B89
:1022F00001D0B14244D10780428041E0514507D12D
:10230000A0F808B0A0F80AE04FF42C5181810EE04B
:10231000A1F5C856633E06D02221018120214181CA
:10232000212181812CE02C21018144818381028043
:10233000458025E0A1F5D04CBCF1040C09D05145F5
:102340000BD1A0F808B0A0F80AE04FF42C53838119
:1023500021E02C250581448109E0A1F5C85CBCF190
:10236000630C12D022230381212343812023838104
:10237000A1F5D043043B01D0B14201D10280478096
:10238000BDE8F04F002003F0F1B84FF02C0CA0F89E
:1023900008C04381848105804280E9E76C220020E7
:1023A0002DE9FE4F0026A2EB000882465F1A701E40
:1023B00035468946B8F1000F02DD4FF0010102E019
:1023C00003D14FF00001019102E0C8F10008019033
:1023D000002F02DD4FF0010002E003D14FF00000BA
:1023E000009002E0C7F1000700904046B84501DDCB
:1023F000044600E03C46601C4FF0000B029015E0E4
:102400001FFA89F11FFA8AF000F016F846443D449D
:10241000A64202DD0199361B8A44A54202DD0099DD
:102420002D1B89440BF101001FFA80FB02998B459B
:10243000E6DDBDE8FE8F000000B503F06BF903F0A8
:102440001BFB024800880249088000BD4A000020AA
:102450000008006CF0B51C4615460E4607460B46B4
:10246000FFF79EFF3A46234631461046FFF798FF96
:1024700023462A4619463846FFF792FF2A46234646
:102480003146BDE8F0401046FFF78ABF2DE9FC4F0A
:1024900080460024154603200F46A0EB450649E080
:1024A000781B81B208EB040A01901FFA8AF0FFF74B
:1024B000C3FF381B81B208EB050900901FFA89F0B1
:1024C000FFF7BAFF07EB040B1FFA8BF11FFA89F035
:1024D000FFF7B2FF07EB05091FFA89F11FFA8AF02F
:1024E000FFF7AAFFA8EB040A1FFA89F11FFA8AF086
:1024F000FFF7A2FFA8EB05091FFA8BF11FFA89F07D
:10250000FFF79AFF019881B21FFA8AF0FFF794FF54
:10251000009881B21FFA89F0FFF78EFF641C002E2D
:1025200003DA06EB8406B61D04E0601B06EB8006AA
:102530006D1E0A36AC42B3DDBDE8FC8F2DE9F04FCD
:10254000DFF80C81934642460B46B8F804500C0A5B
:10255000DFF800A19189060A5289A5F513470AF10F
:102560000209413F18D0A5F5A647103F14D0B7F592
:1025700000771CD04746A5F5C85CBE793F883F1A56
:102580007F1EBCF1630C27D0A5F5D04CBCF1040C28
:102590003AD0012E4AD04AE0AAF800204A46A9F8CB
:1025A0000060C0B2A9F80000AAF800103AE0AAF84A
:1025B0000020A9F80060521CAAF80020C0B2A9F8B7
:1025C0000000AAF80010A9F80040491CAAF8001061
:1025D000D8B2A9F8000033E006B9B8B2AAF80020D2
:1025E000050A4A46A9F80050C7B2A9F80070A9F830
:1025F0000050C0B2A9F80000AAF80010A9F80040E5
:10260000D8B2A9F800000DE0012E00D1B8B2AAF8A6
:102610000020050A4A46A9F80050C0B2A9F80000F7
:10262000AAF800101480D8B2108009E0B8B20146B0
:10263000104603F02BFAB8F80C00194603F026FAFE
:10264000B8F80810AAF80010A9F800B0BDE8F08F9B
:102650006C220020FE07006C2DE9F8431F4D1F4639
:102660008046AB88089EA3F5D040043802D1A879F3
:10267000012807D0A2EB0800401C85B20C46DFF809
:10268000609028E02B880846991A0024AC713A46DD
:102690002A24A3EB08036C812B27491E5B1EAF8104
:1026A00089B29BB20096FFF7D7FF0120A8716F8116
:1026B000AC81BDE8F8832146404603F02BF803F0D7
:1026C000DBF90020494602E00E80401C80B2A8429F
:1026D000FAD3641CA4B2BC42EDD9EAE76C22002014
:1026E0000008006C2DE9F04F01210E029FB030462A
:1026F00004F0FEFA01214FF4B47004F01DFB4FF01A
:102700000108ADF83C8010258DF83F5003208DF86E
:102710003E0047460FA9FE48FFF7DAFC4CF2337043
:10272000ADF83C0018248DF83F4003208DF83E00A2
:102730000FA9F848FFF7CCFC4FF68070ADF83C00CD
:102740008DF83F4003208DF83E000FA9F248FFF7B7
:10275000BFFC41F20100ADF83C008DF83F40032082
:102760008DF83E000FA9ED48FFF7B2FC00200F21C5
:10277000CDE918011A901B901C901D900321109018
:10278000CDE91101CDE91607149006211590CDE988
:102790000010CDE90205139004902902CDE908014B
:1027A0000690059007908900CDE90A010C9017A8C2
:1027B0000D9010A80E906846FFF7CAFA0121062076
:1027C000FFF7B6FA322006F043FC002002F0A4FE28
:1027D000D34AD44C49F2413AA51C908046F6040BEA
:1027E00045F210514FF6FF79FF2804D3484502D037
:1027F000B0F5134F6FD1D320208002F083FE90807C
:1028000002F080FE908002F07DFE09EA00204F4633
:10281000908002F077FE93881843908050455AD0FC
:10282000BF20208002F06EFE908002F06BFE908050
:1028300002F068FE908002F065FE07EA00209080BA
:1028400002F060FE938818439080584543D0D4200E
:10285000208002F057FE908002F054FE908002F03B
:1028600051FE07EA0020908002F04CFE9388184346
:10287000A0F5A6439080103B2DD04FF45A40208005
:1028800002F040FE90804FF45B40208002F03AFE60
:1028900007EA002090804FF45C40208002F032FE76
:1028A000938818439080B0F5004F7DD0884212D0B5
:1028B000A120208002F026FE908002F023FE07EA8D
:1028C0000020908002F01EFE93881843A0F5AE43CE
:1028D0009080613B69D080B2504567D1CF20208085
:1028E00000202880C120288030202880ED202080F2
:1028F00064202880032028801220288081202880BE
:10290000E820208085202880102028807A202880B8
:10291000CB202080392028802C202880002028806F
:102920003420288002202880F72020802020288042
:10293000EA202080002028802880C02020801B20C2
:102940002880C120208001202880C52020803020C0
:1029500028802880C7202080B7202880362020802B
:10296000482028803A20208055202880B1202080CF
:10297000002028801A202880B62020800A20288065
:10298000A2202880F220208000202880262020807D
:1029900001202880E02020800F2028802A20288005
:1029A00028202880082002E04DE047E04DE0288004
:1029B0000E2028800820288054202880A9202880E4
:1029C000432028800A2028800F202880002028808B
:1029D000288028802880E120208000202880152061
:1029E0002880172028800720288011202880062092
:1029F00028802B202880562028803C2028800520F5
:102A00002880102028800F2028803F2028802880C0
:102A10000F2028802B202080002028802880012063
:102A200028803F2028802A2020800020288028809D
:102A30002880EF2028801120208081E041F663105B
:102A4000908002F0CFBC918086E058457DD1112066
:102A50002080142006F0FCFAD02020800720288057
:102A6000422028801D202880D1202080002028801E
:102A70001A20288009202880D22020800120288048
:102A800022202880C0202080102028803B20288001
:102A9000002028800220288011202880C520208046
:102AA00003202880C820208000202880252028801E
:102AB0002120288005202880002028800A202880C6
:102AC0006520288025202880772028805020288095
:102AD0000F20288000202880F820208001202880D6
:102AE000FE202080002028800220288020202080B6
:102AF00036202080082028803A20208055202880F9
:102B00002B202080002028802880012028800CE0B5
:102B1000000C014000140140001801400020014059
:102B20006C220020FE07006C0FE03F2028802A2046
:102B3000208000202880288001202880DF20288015
:102B4000782006F085FA2920FDE3A0F5A642103A88
:102B50007DD0884241F029844FF4704355211846B6
:102B600002F094FF4FF20105AA21284602F08EFFE1
:102B70006E1C5221304602F089FFAF1C08213846F6
:102B800002F084FF4FF2040A0121504602F07EFF5A
:102B90000D214FF4304002F079FF0D214BF201007E
:102BA00002F074FF0D214BF2020002F06FFF4FF4B0
:102BB000364B3421584602F069FF34214BF2016054
:102BC00002F064FF34214BF2026002F05FFF0D213E
:102BD0004FF4314002F05AFF0D214BF2011002F088
:102BE00055FF0D214BF2021002F050FF34214FF43B
:102BF000374002F04BFF34214BF2017002F046FFE8
:102C000034214BF2027002F041FF00214FF43240B8
:102C100002F03CFF00214BF2012002F037FF0021BF
:102C20004BF2022002F032FF24214FF4384002F030
:102C30002DFF24214BF6010002F028FF24214BF642
:102C4000020002F023FF01214FF43F4000E0FCE3CB
:102C500002F01CFF0F214FF4334002F017FF0F2149
:102C60004BF2013002F012FF0F214BF2023002F062
:102C70000DFF34214FF4394002F008FF34214BF6A8
:102C8000011002F003FF34214BF6021002F0FEFEA9
:102C900008214FF4354002F0F9FE08214BF20150B3
:102CA00002F0F4FE08214BF2025002F0EFFE032185
:102CB0004FF4424002F0EAFE24214FF43A4002F081
:102CC000E5FE24214BF6012002F0E0FE24214BF624
:102CD000022002F0DBFE00214FF43C4002F0D6FE61
:102CE00078214BF6014002F0D1FE00214BF6024064
:102CF00002F0CCFE00214FF43D4002F0C7FE7821E7
:102D00004BF6015002F0C2FE00214BF6025002F0D9
:102D1000BDFE00214FF43E4002F0B8FE64214BF6A8
:102D2000016002F0B3FE00214FF4514002F0AEFE0C
:102D300033214DF2011002F0A9FE00214DF20210E4
:102D400002F0A4FE34214DF2031002F09FFE002198
:102D50004DF2041002F09AFE3A214DF2051002F0F5
:102D600095FE00214DF2061002F090FE4A214DF230
:102D7000071002F08BFE00214DF2081002F086FED3
:102D80005C214DF2091002F081FE00214DF20A1083
:102D900002F07CFE81214DF20B1002F077FE002143
:102DA0004DF20C1002F072FEA6214DF20D1002F051
:102DB0006DFE00214DF20E1002F068FEE5214DF28D
:102DC0000F1002F063FE01214DF2101002F05EFEC2
:102DD00013214DF2111002F059FE01214DF2121093
:102DE00002F054FE54214DF2131002F04FFE012167
:102DF0004DF2141002F04AFE82214DF2151002F03D
:102E000045FE01214DF2161002F040FECA214DF29E
:102E1000171002F03BFE02214DF2181002F036FEB0
:102E200000214DF2191002F031FE02214DF21A106C
:102E300002F02CFE01214DF21B1002F027FE0221B0
:102E40004DF21C1002F022FE34214DF21D1002F052
:102E50001DFE02214DF21E1002F018FE67214DF2F8
:102E60001F1002F013FE02214DF2201002F00EFEA0
:102E700084214DF2211002F009FE02214DF22210B0
:102E800002F004FEA4214DF2231002F0FFFD022106
:102E90004DF2241002F0FAFDB7214DF2251002F098
:102EA000F5FD02214DF2261002F0F0FDCF214DF28A
:102EB000271002F0EBFD02214DF2281002F0E6FD92
:102EC000DE214DF2291002F0E1FD02214DF22A101F
:102ED00002F0DCFDF2214DF22B1002F0D7FD0221B1
:102EE0004DF22C1002F0D2FDFE214DF22D1002F019
:102EF000CDFD03214DF22E1002F0C8FD10214DF240
:102F00002F1002F0C3FD03214DF2301002F0BEFD80
:102F100033214DF2311002F0B9FD03214DF2321090
:102F200002F0B4FD6D214DF2331002F0AFFD00212F
:102F30004FF4524002F0AAFD33214DF2012002F07D
:102F4000A5FD00214DF2022002F0A0FD34214DF23A
:102F5000032002F09BFD00214DF2042002F096FDBB
:102F60003A214DF2052002F091FD00214DF206209C
:102F700002F08CFD4A214DF2072002F087FD00216E
:102F80004DF2082002F082FD5C214DF2092002F092
:102F90007DFD00214DF20A2002F078FD81214DF2E5
:102FA0000B2002F073FD00214DF20C2002F06EFDAB
:102FB000A6214DF20D2002F069FD00214DF20E20F8
:102FC00002F064FDE5214DF20F2002F05FFD0121CA
:102FD0004DF2102002F05AFD13214DF2112002F0A3
:102FE00055FD01214DF2122002F050FD54214DF209
:102FF000132002F04BFD01214DF2142002F046FD9A
:1030000082214DF2152002F041FD01214DF21620E2
:1030100002F03CFDCA214DF2172002F037FD0221DB
:103020004DF2182002F032FD00214DF2192002F07D
:103030002DFD02214DF21A2002F028FD01214DF252
:103040001B2002F023FD02214DF21C2002F01EFD88
:1030500034214DF21D2002F019FD02214DF21E20F7
:1030600002F014FD67214DF21F2002F00FFD022136
:103070004DF2202002F00AFD84214DF2212002F0C1
:1030800005FD02214DF2222002F000FDA4214DF2A7
:10309000232002F0FBFC02214DF2242002F0F6FC7A
:1030A000B7214DF2252002F0F1FC02214DF226203D
:1030B00002F0ECFCCF214DF2272002F0E7FC0221C8
:1030C0004DF2282002F0E2FCDE214DF2292002F030
:1030D000DDFC02214DF22A2002F0D8FCF2214DF253
:1030E0002B2002F0D3FC02214DF22C2002F0CEFC6A
:1030F000FE214DF22D2002F0C9FC03214DF22E20BD
:1031000002F0C4FC10214DF22F2002F0BFFC03217D
:103110004DF2302002F0BAFC33214DF2312002F0A2
:10312000B5FC03214DF2322002F0B0FC6D214DF2CE
:10313000332002F0ABFC00214FF4534002F0A6FC18
:1031400033214DF2013002F0A1FC00214DF202309A
:1031500002F09CFC34214DF2033002F097FC002178
:103160004DF2043002F092FC3A214DF2053002F0AB
:103170008DFC00214DF2063002F088FC4A214DF210
:10318000073002F083FC00214DF2083002F07EFC93
:103190005C214DF2093002F079FC00214DF20A3039
:1031A00002F074FC81214DF20B3002F06FFC002123
:1031B0004DF20C3002F06AFCA6214DF20D3002F007
:1031C00065FC00214DF20E3002F060FCE5214DF26D
:1031D0000F3002F05BFC01214DF2103002F056FC82
:1031E00013214DF2113002F051FC01214DF2123049
:1031F00002F04CFC54214DF2133002F047FC012147
:103200004DF2143002F042FC82214DF2153002F0F2
:103210003DFC01214DF2163002F038FCCA214DF27E
:10322000173002F033FC02214DF2183002F02EFC70
:1032300000214DF2193002F029FC02214DF21A3022
:1032400002F024FC01214DF21B3002F01FFC022190
:103250004DF21C3002F01AFC34214DF21D3002F008
:1032600015FC02214DF21E3002F010FC67214DF2D8
:103270001F3002F00BFC02214DF2203002F006FC60
:1032800084214DF2213002F001FC02214DF2223066
:1032900002F0FCFBA4214DF2233002F0F7FB0221E7
:1032A0004DF2243002F0F2FBB7214DF2253002F04E
:1032B000EDFB02214DF2263002F0E8FBCF214DF26A
:1032C000273002F0E3FB02214DF2283002F0DEFB52
:1032D000DE214DF2293002F0D9FB02214DF22A30D5
:1032E00002F0D4FBF2214DF22B3002F0CFFB022191
:1032F0004DF22C3002F0CAFBFE214DF22D3002F0CF
:10330000C5FB03214DF22E3002F0C0FB10214DF21F
:103310002F3002F0BBFB03214DF2303002F0B6FB40
:1033200033214DF2313002F0B1FB03214DF2323046
:1033300002F0ACFB6D214DF2333002F0A7FB00210F
:103340004FF4544000E084E302F0A0FB33214DF23F
:10335000014002F09BFB00214DF2024002F096FB7F
:1033600034214DF2034002F091FB00214DF2044064
:1033700002F08CFB3A214DF2054002F087FB002160
:103380004DF2064002F082FB4A214DF2074002F066
:103390007DFB00214DF2084002F078FB5C214DF2EC
:1033A000094002F073FB00214DF20A4002F06EFB6F
:1033B00081214DF20B4002F069FB00214DF20C40DF
:1033C00002F064FBA6214DF20D4002F05FFB0021EC
:1033D0004DF20E4002F05AFBE5214DF20F4002F093
:1033E00055FB01214DF2104002F050FB13214DF22C
:1033F000114002F04BFB01214DF2124002F046FB5E
:1034000054214DF2134002F041FB01214DF21440D2
:1034100002F03CFB82214DF2154002F037FB012106
:103420004DF2164002F032FBCA214DF2174002F075
:103430002DFB02214DF2184002F028FB00214DF235
:10344000194002F023FB022100E005E34DF21A408F
:1034500002F01CFB01214DF21B4002F017FB022180
:103460004DF21C4002F012FB34214DF21D4002F0DF
:103470000DFB02214DF21E4002F008FB67214DF2C8
:103480001F4002F003FB02214DF2204002F0FEFA41
:1034900084214DF2214002F0F9FA02214DF222403E
:1034A00002F0F4FAA4214DF2234002F0EFFA0221D7
:1034B0004DF2244002F0EAFAB7214DF2254002F025
:1034C000E5FA02214DF2264002F0E0FACF214DF25A
:1034D000274002F0DBFA02214DF2284002F0D6FA32
:1034E000DE214DF2294002F0D1FA02214DF22A40AC
:1034F00002F0CCFAF2214DF22B4002F0C7FA022181
:103500004DF22C4002F0C2FAFE214DF22D4002F0A5
:10351000BDFA03214DF22E4002F0B8FA10214DF20F
:103520002F4002F0B3FA03214DF2304002F0AEFA20
:1035300033214DF2314002F0A9FA03214DF232401D
:1035400002F0A4FA6D214DF2334002F09FFA0021FF
:103550004FF4554002F09AFA33214DF2015002F037
:1035600095FA00214DF2025002F090FA34214DF20A
:10357000035002F08BFA00214DF2045002F086FA5B
:103580003A214DF2055002F081FA00214DF2065029
:1035900002F07CFA4A214DF2075002F077FA00213E
:1035A0004DF2085002F072FA5C214DF2095002F01F
:1035B0006DFA00214DF20A5002F068FA81214DF2B5
:1035C0000B5002F063FA00214DF20C5002F05EFA4B
:1035D000A6214DF20D5002F059FA00214DF20E5085
:1035E00002F054FAE5214DF20F5002F04FFA01219A
:1035F0004DF2105002F04AFA13214DF2115002F030
:1036000045FA01214DF2125002F040FA54214DF2D8
:10361000135002F03BFA01214DF2145002F036FA39
:1036200082214DF2155002F031FA01214DF216506F
:1036300002F02CFACA214DF2175002F027FA0221AB
:103640004DF2185002F022FA00214DF2195002F00A
:103650001DFA02214DF21A5002F018FA01214DF222
:103660001B5002F013FA02214DF21C5002F00EFA28
:1036700034214DF21D5002F009FA02214DF21E5084
:1036800002F004FA67214DF21F5002F0FFF9022107
:103690004DF2205002F0FAF984214DF2215002F04F
:1036A000F5F902214DF2225002F0F0F9A4214DF279
:1036B000235002F0EBF902214DF2245002F0E6F91A
:1036C000B7214DF2255002F0E1F902214DF22650CA
:1036D00002F0DCF9CF214DF2275002F0D7F9022198
:1036E0004DF2285002F0D2F9DE214DF2295002F0BD
:1036F000CDF902214DF22A5002F0C8F9F2214DF223
:103700002B5002F0C3F902214DF22C5002F0BEF909
:10371000FE214DF22D5002F0B9F903214DF22E5049
:1037200002F0B4F910214DF22F5002F0AFF903214D
:103730004DF2305002F0AAF933214DF2315002F02F
:10374000A5F903214DF2325002F0A0F96D214DF29E
:10375000335002F09BF900214FF4564002F096F9E5
:1037600033214DF2016002F091F900214DF2026027
:1037700002F08CF934214DF2036002F087F9002148
:103780004DF2046002F082F93A214DF2056002F038
:103790007DF900214DF2066002F078F94A214DF2E0
:1037A000076002F073F900214DF2086002F06EF933
:1037B0005C214DF2096002F069F900214DF20A60C6
:1037C00002F064F981214DF20B6002F05FF90021F3
:1037D0004DF20C6002F05AF9A6214DF20D6002F094
:1037E00055F900214DF20E6002F050F9E5214DF23D
:1037F0000F6002F04BF901214DF2106002F046F922
:1038000013214DF2116002F041F901214DF21260D5
:1038100002F03CF954214DF2136002F037F9012116
:103820004DF2146002F032F982214DF2156002F07F
:103830002DF901214DF2166002F028F9CA214DF24E
:10384000176002F023F902214DF2186002F01EF910
:1038500000214DF2196002F019F902214DF21A60AF
:1038600002F014F901214DF21B6002F00FF9022160
:103870004DF21C6002F00AF934214DF21D6002F095
:1038800005F902214DF21E6002F000F967214DF2A8
:103890001F6002F0FBF802214DF2206002F0F6F802
:1038A00084214DF2216002F0F1F802214DF22260F4
:1038B00002F0ECF8A4214DF2236002F0E7F80221B7
:1038C0004DF2246002F0E2F8B7214DF2256002F0DB
:1038D000DDF802214DF2266002F0D8F8CF214DF23A
:1038E000276002F0D3F802214DF2286002F0CEF8F2
:1038F000DE214DF2296002F0C9F802214DF22A6062
:1039000002F0C4F8F2214DF22B6002F0BFF8022160
:103910004DF22C6002F0BAF8FE214DF22D6002F05B
:10392000B5F803214DF22E6002F0B0F810214DF2EF
:103930002F6002F0ABF803214DF2306002F0A6F8E0
:1039400033214DF2316002F0A1F803214DF23260D3
:1039500002F09CF86D214DF2336002F097F855218A
:10396000184602F093F8AA21284602F08FF8522157
:10397000304602F08BF80821384602F087F8002123
:10398000504602F083F8CC214FF4314002F07EF82B
:1039900000214BF2011002F079F80521584602F09F
:1039A00075F870214FF4374002F070F870214BF237
:1039B000017002F06BF801214FF4384002F066F814
:1039C00003214BF6010002F061F803214BF60200DF
:1039D00002F05CF803214BF6030002F057F80221D5
:1039E0004FF43C4002F052F800214BF6014002F047
:1039F0004DF800214BF6024002F048F8D0214FF478
:103A0000494002F043F802214CF6011002F03EF862
:103A100050214CF6021002F039F850214CF60310F8
:103A200002F034F850214CF6041002F02FF8002177
:103A30004FF4545002F02AF855214FF4685002F028
:103A400025F84FF488502080782005F023FB4FF4B0
:103A50002450208001F040BDED20208001202880EE
:103A6000FE202880EE202080DE2028802120288053
:103A7000F120208001202880DF2020801020288055
:103A8000C42020808F202880C6202080002028800D
:103A9000E220288028802880BF202080AA2028803B
:103AA000B02020800D202880002028800D20288034
:103AB00000202880112028800020288019202880BC
:103AC0000020288021202880002028802D20288088
:103AD000002028803D202880002028805D2028802C
:103AE000002028805D20288000202880B1202080B0
:103AF00080202880002028808B202880002028809B
:103B00009620288000202880B22020800020288055
:103B10002880022028800020288003202880002080
:103B20002880B320208000202880288028802880BA
:103B30002880288028802880288028802880288045
:103B40002880288028802880288028802880288035
:103B50002880288028802880B42020808B202880FE
:103B6000002028809620288000202880A1202880FE
:103B700000202880B5202080022028800020288076
:103B8000032028800020288004202880002028800E
:103B9000B6202080002028802880B72020800020A8
:103BA000288028803F202880002028805E202880D0
:103BB0000020288064202880002028808C202880F5
:103BC00000202880AC20288000202880DC2028804D
:103BD00000202880702028800020288090202880C5
:103BE00000202880EB20288000202880DC202880EE
:103BF00000202880B820208000202880288028806D
:103C000028802880288028802880BA2020802420AE
:103C100028800020288028802880C1202080202023
:103C20002880002028805420288000202880FF2021
:103C3000288000202880C22020800A2028800020A0
:103C400028800420288000202880C32020803C2059
:103C50002880002028803A202880002028803920D1
:103C600028800020288037202880002028803C20C1
:103C700028800020288036202880002028803220BC
:103C80002880002028802F202880002028802C20B9
:103C900028800020288029202880002028802620B5
:103CA00028800020288024202880002028802420AC
:103CB00028800020288023202880002028803C2085
:103CC000288000202880362028800020288032206C
:103CD0002880002028802F202880002028802C2069
:103CE0002880002028802920288000202880262065
:103CF000288000202880242028800020288024205C
:103D00002880002028802320288000202880C420AC
:103D10002080622028800020288005202880002024
:103D200028808420288000202880F02028800020FF
:103D300028801820288000202880A42028800020A7
:103D400028801820288000202880502028800020EB
:103D500028800C2028800020288017202880002020
:103D600028809520288000202880F32028800020AB
:103D70002880E620288000202880C520208032204E
:103D8000288000202880442028800020288065206A
:103D90002880002028807620288000202880882005
:103DA000288000202880C620208020202880002015
:103DB00028801720288000202880012028800020CB
:103DC0002880C72020800020288028802880288004
:103DD000C820208000202880288028802880C920B2
:103DE0002080002028802880288028802880288023
:103DF0002880288028802880288028802880288083
:103E000028802880E020208016202880002028801C
:103E10001C20288000202880212028800020288045
:103E200036202880002028804620288000202880F6
:103E300052202880002028806420288000202880AC
:103E40007A202880002028808B202880002028804D
:103E50009920288000202880A82028800020288001
:103E6000B920288000202880C420288000202880B5
:103E7000CA20288000202880D22028800020288086
:103E8000D920288000202880E02028800020288059
:103E9000F320288000202880E12020801620288020
:103EA000002028801C2028800020288022202880B4
:103EB0000020288036202880002028804520288067
:103EC000002028805220288000202880642028801C
:103ED000002028807A202880002028808B202880BD
:103EE000002028809920288000202880A820288071
:103EF00000202880B920288000202880C420288025
:103F000000202880CA20288000202880D2202880F5
:103F100000202880D820288000202880E0202880C9
:103F200000202880F320288000202880E2202080A4
:103F300005202880002028800B2028800020288051
:103F40001B20288000202880342028800020288002
:103F500044202880002028804F20288000202880AE
:103F60006120288000202880792028800020288057
:103F70008820288000202880972028800020288002
:103F8000A620288000202880B720288000202880B4
:103F9000C220288000202880C72028800020288078
:103FA000D120288000202880D6202880002028804A
:103FB000DD20288000202880F32028800020288011
:103FC000E320208005202880002028800A202880E7
:103FD000002028801C202880002028803320288072
:103FE000002028804420288000202880502028801D
:103FF00000202880622028800020288078202880C7
:104000000020288088202880002028809720288071
:1040100000202880A620288000202880B720288023
:1040200000202880C220288000202880C7202880E7
:1040300000202880D120288000202880D5202880BA
:1040400000202880DD20288000202880F320288080
:1040500000202880E4202080012028800020288063
:10406000012028800020288002202880002028802D
:104070002A202880002028803C20288000202880BA
:104080004B202880002028805D2028800020288068
:104090007420288000202880842028800020288008
:1040A0009320288000202880A220288000202880BB
:1040B000B320288000202880BE202880002028806F
:1040C000C420288000202880CD202880002028803F
:1040D000D320288000202880DD2028800020288010
:1040E000F320288000202880E520208000202880E0
:1040F00028802880288002202880002028802920ED
:104100002880002028803C202880002028804B2008
:104110002880002028805D202880002028807420AE
:104120002880002028808420288000202880932058
:10413000288000202880A220288000202880B3200A
:10414000288000202880BE20288000202880C420CD
:10415000288000202880CD20288000202880D3209F
:10416000288000202880DC20288000202880F32060
:10417000288000202880E620208011202880002030
:104180002880342028800020288056202880002085
:104190002880762028800020288077202880002012
:1041A0002880662028800020288088202880002001
:1041B00028809920288000202880BB20288000208B
:1041C00028809920288000202880662028800020D0
:1041D0002880552028800020288055202880002015
:1041E0002880452028800020288043202880002027
:1041F00028804420288000202880E720208032204A
:1042000028800020288055202880002028807620C3
:1042100028800020288066202880002028806720B1
:104220002880002028806720288000202880872080
:104230002880002028809920288000202880BB200A
:10424000288000202880992028800020288077203E
:1042500028800020288044202880002028805620A4
:1042600028800020288023202880002028803320D8
:104270002880002028804520288000202880E820F1
:1042800020800020288028809920288000202880F5
:1042900087202880002028808820288000202880EF
:1042A0007720288000202880662028800020288011
:1042B0008820288000202880AA20288000202880AC
:1042C000BB2028800020288099202880002028807A
:1042D0006620288000202880552028800020288003
:1042E0005520288000202880442028800020288015
:1042F0004420288000202880552028800020288005
:10430000E9202080AA20288000202880288028807A
:104310002080AA202880CF2020800020288028808C
:10432000288028802880288028802880288028804D
:104330002880288028802880288028802880F020D5
:10434000208000202880502028800020288028807D
:104350002880F320208000202880F920208006205B
:1043600028801020288029202880002028803A20BA
:1043700020805520288011202080642004F068FED1
:104380002920208035202080002028805120208076
:10439000FF202880532020802C202880552020803A
:1043A000822028802C20FFF754BBA0F513414FF446
:1043B000E06B4FF4274A253924D040F20777C91E15
:1043C0007DD04FF4887A08317AD0113979D0A0F5B0
:1043D000A841083976D0A0F5A8514FF4407A0539A4
:1043E00071D0B1F520416FD0B1F580516DD0A0F5FD
:1043F0008A4131396AD0091F69D0A0F5C8516339A3
:1044000066D0FCE347F6F001E52001F03FFB3146C2
:10441000012001F03BFB5946022001F037FB41F23D
:104420003001032001F032FB0021042001F02EFBBB
:1044300040F20221082001F029FB0021092001F0AF
:1044400025FB00210A2001F021FB00210C2001F0B6
:104450001DFB00210D2001F019FB00210F2001F0B0
:1044600015FB0021102001F011FB0721112001F0A4
:104470000DFB0021122001F009FB0021132001F0A7
:1044800005FB0021072001F001FB41F290611020A3
:1044900001F0FCFA40F22721112001F0F7FA9D21EA
:1044A000122001F0F3FA4FF4C851132001F0EEFA94
:1044B0002521292001F0EAFA0D212B2009E079E0DD
:1044C00036E1DCE1B3E24FE3FEE3FEE3FEE3FEE3CD
:1044D000FEE301F0DBFA0721302001F0D7FA40F2C9
:1044E0000331312001F0D2FA0321322001F0CEFA5B
:1044F00040F20621352001F0C9FA0821362001F0EA
:10450000C5FA40F20641372001F0C0FA4FF441717C
:10451000382001F0BBFA0721392001F0B7FA40F248
:1045200002613C2001F0B2FA08213D2001F0AEFA10
:104530000021502001F0AAFAEF21512001F0A6FA43
:104540000021522001F0A2FA40F23F11532001F065
:104550009DFA5146602001F099FA0121612001F095
:1045600095FA00216A2001F091FA0021802001F0E3
:104570008DFA0021812001F089FA0021822001F0CA
:1045800085FA0021832001F081FA0021842001F0C6
:104590007DFA0021852001F079FA1021902001F0A8
:1045A00075FA4FF4C061922001F070FA40F23311B5
:1045B0000720EEE341F28F01EC2001F067FA41F2AF
:1045C0003421EF2001F062FA3146012001F05EFA59
:1045D0005946022001F05AFA41F23001032001F05D
:1045E00055FA0021042001F051FA40F2022108207E
:1045F00001F04CFA0021092001F048FA00210A20BC
:1046000001F044FA01210C2001F040FA00210D20B4
:1046100001F03CFA00210F2001F038FA00211020AF
:1046200001F034FA0721112001F030FA00211220A4
:1046300001F02CFA0021132001F028FA01210720B3
:1046400001F024FA322004F003FD41F290411020E1
:1046500001F01CFA40F22721112001F017FA322054
:1046600004F0F6FC8A21122001F010FA322004F046
:10467000EFFC4FF4D051132001F008FA0621292055
:1046800001F004FA0D212B2001F000FA322004F091
:10469000DFFC0021202001F0F9F90021212001F0A8
:1046A000F5F9322004F0D4FC0021302001F0EEF9BD
:1046B00040F20461312001F0E9F940F20531322085
:1046C00001F0E4F90021352001F0E0F940F609415C
:1046D000362001F0DBF94FF40171372001F0D6F9F3
:1046E00040F20131382001F0D1F93946392001F08A
:1046F000CDF900213C2001F0C9F940F60A213D2006
:1047000001F0C4F9322004F0A3FC0021502001F094
:10471000BDF9EF21512001F0B9F90021522001F03B
:10472000B5F940F23F11532001F0B0F9514653E181
:104730000021084601F0AAF93146012001F0A6F94E
:104740005946022001F0A2F941F23001032001F0A4
:104750009DF90021042001F099F940F2022108207E
:1047600001F094F90021092001F090F900210A20BC
:1047700001F08CF901210C2001F088F900210D20B5
:1047800001F084F900210F2001F080F9322004F0BB
:104790005FFC40F20111072001F078F9322004F0AB
:1047A00057FC4FF48651102001F070F907211120B9
:1047B00001F06CF953465146122001F067F94FF4AD
:1047C0003061132001F062F90021292001F05EF927
:1047D00044F210012B2001F059F90021502001F082
:1047E00055F9EF21512001F051F90021522001F03B
:1047F0004DF940F23F11532001F048F94FF41C519C
:10480000602001F043F90121612001F03FF900210E
:104810006A2001F03BF90021802001F037F90021E6
:10482000812001F033F90021822001F02FF90021CD
:10483000832001F02BF90021842001F027F90021C9
:10484000852001F023F91021902001F01FF90021AB
:10485000922001F01BF90121932001F017F919466C
:10486000952001F013F90021972001F00FF90021A4
:10487000982001F00BF940F27311072087E341F211
:104880001401E72001F002F93146012001F0FEF8A1
:104890004FF40071022001F0F9F841F238010320D1
:1048A00001F0F4F840F20221082001F0EFF80021B5
:1048B000092001F0EBF800210A2001F0E7F80021BF
:1048C0000C2001F0E3F800210D2001F0DFF80021B9
:1048D0000F2001F0DBF80021102001F0D7F80721AC
:1048E000112001F0D3F80021122001F0CFF80021AF
:1048F000132001F0CBF8C82004F0AAFB41F290612C
:10490000102001F0C3F840F22721112001F0BEF879
:10491000322004F09DFB0C21122001F0B7F8322068
:1049200004F096FB4FF40061132001F0AFF8112161
:10493000292001F0ABF80B212B2001F0A7F8322041
:1049400004F086FB0021202001F0A0F840F23F1384
:104950001946212001F09AF80021302001F096F844
:104960004FF483742146312001F090F80021322069
:1049700001F08CF84FF40171352001F087F841F215
:104980000A61362001F082F83946372001F07EF8BE
:104990002146382001F07AF83946392001F076F8BE
:1049A00040F202413C2001F071F840F60F413D20F9
:1049B00001F06CF80021502001F068F8EF2151203F
:1049C00001F064F80021522001F060F819465320EC
:1049D00001F05CF84FF41C51602001F057F8012100
:1049E000612001F053F800216A2001F04FF8002106
:1049F000802001F04BF80021812001F047F80021D0
:104A0000822001F043F80021832001F03FF80021CB
:104A1000842001F03BF80021852001F037F81021B7
:104A2000902001F033F84FF4C0619220FEE331464C
:104A3000012001F02BF85946022001F027F841F23D
:104A40003001032001F022F80021042001F01EF8BB
:104A500040F20721082001F019F80021092001F097
:104A600015F800210A2001F011F800210C2001F0B6
:104A70000DF800210D2001F009F800210F2001F0B0
:104A800005F8142004F0E4FA41F2B061102000F0BF
:104A9000FDFF0121112000F0F9FF0121172000F096
:104AA000F5FF4FF49C71122000F0F0FF4FF400610D
:104AB000132000F0EBFF0921292000F0E7FF092176
:104AC0002A2000F0E3FF0021A42000F0DFFF0021F6
:104AD000502000F0DBFFEF21512000F0D7FF002134
:104AE000522000F0D3FF40F23F11532000F0CEFFE0
:104AF0004FF41C51602000F0C9FF0121612000F03B
:104B0000C5FF00216A2000F0C1FF0021802000F0D5
:104B1000BDFF0021812000F0B9FF0021822000F0BC
:104B2000B5FF0021832000F0B1FF0021842000F0B8
:104B3000ADFF0021852000F0A9FF1321902000F097
:104B4000A5FF0021922000F0A1FF0321932000F097
:104B50009DFF5146952000F099FF40F27311072008
:104B600000F094FF322011E10021072000F08EFFB9
:104B7000322004F06DFA4FF48E71122000F086FF9F
:104B80000121A42000F082FF0F21082000F07EFF09
:104B900008210A2000F07AFF08210D2000F076FF9E
:104BA0003946302000F072FF0721312000F06EFFFF
:104BB00040F20361322000F069FF5C465946332021
:104BC00000F064FF40F20221342000F05FFF022178
:104BD000352000F05BFF41F60F71362000F056FFE4
:104BE0003946372000F052FF0021382000F04EFFF8
:104BF0000021392000F04AFF39463A2000E048E31E
:104C000000F044FF00213B2000F040FF07213C2042
:104C100000F03CFF00213D2000F038FF322004F07E
:104C200017FA0121072000F031FF0121172000F0C1
:104C30002DFF322004F00CFA4FF4BD51102000F08B
:104C400025FF40F21721112000F020FF4FF48F7153
:104C5000122000F01BFF4FF47061132000F016FFCC
:104C600000212A2000F012FF0A21292000F00EFF67
:104C70004FF49F71122000F009FF0021502000F036
:104C800005FFEF21512000F001FF0021522000F02C
:104C9000FDFE40F23F11532000F0F8FE4FF41C518E
:104CA000602000F0F3FE0121612000F0EFFE002102
:104CB0006A2000F0EBFE0021802000F0E7FE0021DA
:104CC000812000F0E3FE04E064E061E12AE2E1E239
:104CD00088E30021822000F0D9FE0021832000F02B
:104CE000D5FE0021842000F0D1FE0021852000F0B7
:104CF000CDFE1321902000F0C9FE5146922000F015
:104D0000C5FE0521932000F0C1FE0021952000F092
:104D1000BDFE0021972000F0B9FE0021982000F090
:104D2000B5FE3146012000F0B1FE2146022000F020
:104D3000ADFE41F23801032000F0A8FE002104205E
:104D400000F0A4FE00210C2000F0A0FE00210F20A6
:104D500000F09CFE0021202000F098FE0021212080
:104D600000F094FE2121072000F090FE142004F0B2
:104D70006FF96121072000F089FE142004F068F922
:104D800040F27311072000F081FE142004F060F956
:104D9000A2E3F8E00021084600F078FE0021084672
:104DA00000F074FE0021084600F070FE0021084665
:104DB00000F06CFE0121A42000F068FE142004F035
:104DC00047F94FF41C542146602000F05FFE40F28A
:104DD00002252946082000F059FE4FF405713020C5
:104DE00000F054FE43F21571312000F04FFE40F206
:104DF0000461322000F04AFE40F61661332000F0D4
:104E000045FE42F21121342000F040FE4FF4A8513B
:104E1000352000F03BFE48F20751362000F036FE08
:104E200041F20741372000F031FE41F203413820C2
:104E300000F02CFE2021392000F028FE1A219020BD
:104E400000F024FE0021102000F020FE0721112098
:104E500000F01CFE0021122000F018FE002113209B
:104E600000F014FE142004F0F3F84FF4E661102073
:104E700000F00CFE40F23711112000F007FE142064
:104E800004F0E6F84FF4DC71122000F0FFFD14206E
:104E900004F0DEF84FF47061132000F0F7FD80217C
:104EA0002A2000F0F3FD4821292000F0EFFD142016
:104EB00004F0CEF83146012000F0E8FD594602200A
:104EC00000F0E4FD41F23801032000F0DFFD294647
:104ED000082000F0DBFD00210A2000F0D7FD0021B2
:104EE0000C2000F0D3FD00210D2000F0CFFD30217B
:104EF0000E2000F0CBFD0021502000F0C7FDEF2177
:104F0000512000F0C3FD0021522000F0BFFD40F20F
:104F10003F11532000F0BAFD2146602000F0B6FD9D
:104F20000121612000F0B2FD00216A2000F0AEFDF9
:104F30001121902000F0AAFD4FF4C061922000F0F2
:104F4000A5FD40F20241932000F0A0FD0221942033
:104F500000F09CFD142004F07BF80121072000F0F4
:104F600095FD142004F074F86121072000F08EFDF7
:104F700040F27311072000F089FD0021202000F08D
:104F800085FD0021212000F081FD222100207EE10D
:104F90000021084600F07AFD0021084600F076FD69
:104FA000142004F055F80021084600F06FFD0021A0
:104FB000084600F06BFD0021084600F067FD002167
:104FC000084600F063FD0121A42000F05FFD1420DD
:104FD00004F03EF84FF41C51602000F057FD40F6FD
:104FE0000601082000F052FD40F2037319463020FC
:104FF00000F04CFD0121312000F048FD0421322059
:1050000000F044FD4FF48171332000F03FFD544621
:105010005146342000F03AFD40F20311352000F0F3
:1050200035FD1F21362000F031FD1946372000F0F4
:105030002DFD0121382000F029FD0421392000F048
:1050400025FD1521902000F021FD4FF482611020F4
:1050500000F01CFD40F24721112000F017FD4FF435
:10506000DE71122000F012FD4FF46061132000F099
:105070000DFD782003F0ECFF3146012000F006FD25
:105080004FF40071022000F001FD41F230010320D5
:1050900000F0FCFC08210A2000F0F8FC00210C20A4
:1050A00000F0F4FC20210E2000F0F0FC00210F2085
:1050B00000F0ECFC0021202000F0E8FC0021212081
:1050C00000F0E4FC3D212A2000F0E0FC142003F075
:1050D000BFFF2D21292000F0D9FC0021502000F035
:1050E000D5FC4DF2EF01512000F0D0FC0021522000
:1050F00000F0CCFC40F23F11532000F0C7FC00212F
:10510000612000F0C3FC00216A2000F0BFFC2146B2
:10511000922000F0BBFC0521932000F0B7FC314643
:10512000FFF7ABBB0121002000F0B0FC0A2003F028
:105130008FFF41F22861102000F0A8FC0E21122000
:1051400000F0A4FC40F63921132000F09FFC0A2057
:1051500003F07EFF4021112000F098FC5021152023
:1051600000F094FC0A2003F073FF1E21122000F0CF
:105170008DFC0A2003F06CFF4FF4B151102000F0B9
:1051800085FC42F63921132000F080FC0A2003F050
:105190005FFF3146012000F079FC5146022000F00B
:1051A00075FC41F23801032000F070FC40F202214E
:1051B000082000F06BFC08210A2000F067FC0021A9
:1051C000302000F063FC40F20241312000F05EFC30
:1051D0004FF48371322000F059FC40F20351332028
:1051E00000F054FC4FF48271342000F04FFC40F288
:1051F0000131352000F04AFC3946362000F046FCEB
:1052000040F20531372000F041FC4FF402713820A4
:1052100000F03CFC40F60B71392000F037FC022115
:10522000412000F033FC4FF41C5100E0D5E0602039
:1052300000F02CFC0121612000F028FC4FF40471E7
:10524000902000F023FC4FF48571922000F01EFCAA
:105250000421932000F01AFC3146A02000F016FC37
:105260000121072000F012FC2121072000F00EFC94
:105270002321072000F00AFC3321072000F006FC60
:1052800040F23311072000F001FC0021A02000F0C3
:10529000FDFB21E13021152000F0F8FB10219A20C0
:1052A00000F0F4FB2021112000F0F0FB43F2284134
:1052B000102000F0EBFB0221122000F0E7FB41F28E
:1052C0003801132000F0E2FB282003F0C1FE122178
:1052D000084600F0DBFB282003F0BAFE43F2204131
:1052E000102000F0D3FB43F23801132000F0CEFB76
:1052F000462003F0ADFE0021302000F0C7FB40F255
:105300000241312000F0C2FB40F20731322000F0B0
:10531000BDFB4FF44171332000F0B8FB0421342071
:1053200000F0B4FB40F20141352000F0AFFB3946FC
:10533000362000F0ABFB40F20531372000F0A6FB31
:105340004FF4C2631946382000F0A0FB19463920FB
:1053500000F09CFB3146012000F098FB51460220F2
:1053600000F094FB41F23001032000F08FFB40F687
:105370000801082000F08AFB08210A2000F086FBC3
:105380004FF41C51602000F081FB0121612000F0EE
:105390007DFB4FF49F71902000F078FB3146922006
:1053A00000F074FB3146932000F070FB4FF4405145
:1053B000A02000F06BFB1021A32000F067FB01216F
:1053C000072000F063FB2121072000F05FFB232171
:1053D000072000F05BFB3321072000F057FB40F271
:1053E00033119DE6E220208023202880022028809F
:1053F00004202880642003F04DFEE020208001205E
:1054000028800A2003F024FEE0202080032028804A
:105410000C2003F01DFE012020800A2003F018FE5E
:10542000E620208003202880FF2028802880B020CC
:10543000208020202880002028800320288040F21F
:105440001F3028800120288040F2DF1028800020B3
:105450002880B42020800420288040F21F4028802B
:1054600000202880D22028800020288028802880C2
:105470002880B6202080022028804FF403702880E6
:1054800000202880222028800920288000202880D1
:105490002880F02020800320288029202080D02010
:1054A000208000202880BE20208005202880FE202B
:1054B000288001202880FF20288000202880B82014
:1054C00020800F20288001202880BA202080012001
:1054D0002880642000F02CF80020FCF7C7FE044967
:1054E000C1F880814846FCF78BFE1FB0BDE8F08F05
:1054F000008021420346012000E05843491EC9B202
:10550000FBD27047034808B50088ADF80000BDF82D
:10551000000008BD0008006C044910B50880052093
:1055200003F0B8FDBDE81040FFF7ECBFFE07006CCC
:105530000C4A10B5BE211180941C0521218006F073
:1055400024F84FF06632084B06F032F805F0F0FF11
:10555000208001202080FF202080002020802080CB
:1055600010BD0000FE07006C66660440F0B5674E93
:1055700000233146B279898846F6040741F6631460
:10558000012A01D02AB11DE0B9421BD0A14202D1AB
:1055900018E0A14216D1082814D2DFE800F0040672
:1055A000080A0C0E101206200CE007200AE0042066
:1055B00008E0052006E0012004E0002002E00320CE
:1055C00000E00220A1F5134C45F2103245F21055CF
:1055D000BCF1410C07D0B94205D0914203D0A94299
:1055E00001D0A14275D1082812D2DFE800F01104E1
:1055F00006080A0C0E1080230AE0402308E0C023AE
:1056000006E0202304E0602302E0A02300E0E02382
:10561000A94202D14FF4585000E03620914205D003
:10562000A94203D0A14201D043F00803B94201D1FD
:1056300043F00203194600F029FAB288A2420AD0C8
:1056400098063088718802D5884202D303E08842E8
:1056500001D9318070802E48811CAA427289028053
:1056600021D100230B80531C038000230B80931C4B
:10567000038033885B1E1C0A0C80D21C0280DAB2C5
:105680000A80B289028000230B80531C0380002310
:105690000B80931C038073885B1E1C0A0C80D21C39
:1056A0000280D8B212E000220A800A803288521E9C
:1056B000130A0B80D2B20A80B289028000200880CF
:1056C00008807088401E020A0A80C0B20880F0BDBF
:1056D000FFE7082812D2DFE800F0040608110A0CE0
:1056E0000E1030230AE0102308E0202306E03823C0
:1056F00004E0282302E0182300E00823BDE8F0407E
:10570000032043F4805100F0C1B900006C22002056
:10571000FE07006C2DE9F04F4E4F0B463A46BD8810
:105720000C0ADFF834B191895289A5F513464FEA86
:10573000102C0BF1020A413E1DD0A5F5A646103EE5
:1057400019D03E46BE4696F806903688A5F5D04755
:10575000A6EB0008A8F10108043F17D0A5F5C8572B
:10576000633F28D0A5F5AA477646103F51D0B9F13E
:10577000010F63D064E0ABF800205246AAF800C0E5
:10578000C0B2AAF80000ABF800100FE0B9F1010FA9
:1057900001D11FFA88F0ABF80020050A5246AAF89A
:1057A0000050C0B2AAF80000ABF800101480D8B2C4
:1057B0001080BDE8F08FB9F1000F1BD0ABF80020CE
:1057C0005246AAF800C0C0B2AAF80000761E300AFD
:1057D000AAF80000F0B21080ABF800101146148057
:1057E000D8B21080BEF80200401E020A0A80C0B281
:1057F0000880DEE71FFA88F0ABF80020002652464A
:10580000AAF80060AAF80060060AAAF80060C0B210
:10581000E1E7ABF80020AAF800C0521CABF800206A
:10582000C0B2AAF80000ABF80010AAF80040491C6A
:10583000ABF80010D8B2AAF80000BAE71FFA88F057
:105840000146104600F022F9B089BDE8F04F194634
:1058500000F01CB96C220020FE07006C2DE9FF4F00
:1058600083B00D46019198461821B3FBF1F301FB7B
:10587000138080B15FEA08700FD00C20410700D080
:10588000012101EBD00140084143203AD0B20590FC
:105890000291002072E01820F0E71020EEE71820B7
:1058A000B8FBF0F200FB1281B9B15FEA087019D0C1
:1058B0000C20B8FBF0F200FB1281002962D105999F
:1058C000324A01EB4101B8FBF0F602EB810212F81B
:1058D0000B900020009000272CE005992C4A01EB4A
:1058E000C101F0E72B4905984FEA181601EB0011AA
:1058F00011F80B90EDE70398002400EB070A15E080
:105900005FEA096006D5244A281981B21FFA8AF095
:10591000128807E0109838B91F4A281981B21FFA77
:105920008AF05288FCF70AFE641CE4B2B442E7D362
:105930007F1CFFB2B742DED34FEA49604FEA1069DD
:10594000A81985B215484088A8421BD90198291A80
:1059500041450AD10398019D304480B203900F481D
:105960000188039881420DD905E00098401CC0B21F
:1059700000900828AFD30BF10100C0B20299834612
:1059800088428CD307B0BDE8F08F0000B4B70008A0
:1059900018C2000828BC00084A0000206C22002021
:1059A0002DE9FF4F81B00027DDF838B01D46924643
:1059B00080463C46B9464FEA5B0627E0281B401E5E
:1059C000C1B20A20FFF796FDBAFBF0F00A21B0FB46
:1059D000F1F201FB120027B9691E8C4201DA48B1CD
:1059E00001273030C2B206FB048080B25B46CDF89E
:1059F000009006E006FB048080B25B462022CDF8D2
:105A000000900299FFF72AFF641CE4B2AC42D5D3A0
:105A100005B0BDE8F08F2DE9F847044600F0FF0817
:105A200010190D46DDE909761FFA80FA58191FFA98
:105A300080F913E00A2A1AD0544502D3E8194446E3
:105A400085B24D4511D2002000903B4629462046A4
:105A5000FFF704FF04EB570084B2761C3278A2F102
:105A600020005E28E6D90A2AE4D0BDE8F887E819C4
:105A7000444685B2F1E700000248034900890880E6
:105A8000704700006C220020FE07006C024A108064
:105A9000901C018070470000FE07006CFEE7704715
:105AA00030B50F23C27801780125F2B1144A12688B
:105AB00001F1E02102F4E062C2F5E062120AC2F1F3
:105AC0000404D3404278A24084781C40144322014D
:105AD00081F80024007800F01F018D40400980000B
